:020000040800F2
:1000000000000320950500082D1E00082F1E000883
:10001000311E0008331E0008351E000800000000D5
:100020000000000000000000000000000163000864
:10003000371E000800000000916300080B5C0008F8
:10004000E5050008E5050008E5050008E5050008E8
:10005000E5050008E5050008E5050008E5050008D8
:10006000E5050008E5050008E5050008E5050008C8
:10007000E5050008E5050008E5050008E5050008B8
:10008000E5050008E5050008E5050008E5050008A8
:10009000E5050008E5050008E5050008E505000898
:1000A000E5050008E5050008E5050008E505000888
:1000B000E5050008E5050008E5050008E505000878
:1000C000E5050008E5050008E5050008E505000868
:1000D000E5050008E5050008E5050008E505000858
:1000E000E5050008E5050008E5050008E505000848
:1000F000E5050008E5050008E5050008E505000838
:10010000E5050008E5050008E5050008E505000827
:10011000E5050008E5050008391E0008E5050008AA
:10012000E5050008E5050008E5050008E505000807
:10013000E5050008E5050008E5050008E5050008F7
:10014000E5050008E5050008E5050008E5050008E7
:10015000E5050008E5050008E5050008E5050008D7
:10016000E5050008E5050008E5050008E5050008C7
:10017000E5050008E5050008E505000800000000A9
:10018000E5050008E5050008E5050008E5050008A7
:10019000E5050008E5050008E5050008E505000897
:0C01A000451E0008E5050008511E00087F
:1001B00010B5054C237833B9044B13B10448AFF3A1
:1001C00000800123237010BD6C010020000000009E
:1001D0007CCA010808B5034B1BB103490348AFF3C0
:1001E000008008BD00000000700100207CCA0108EA
:1001F00001F0FF01102A2BDB10F0070F08D010F8D8
:10020000013B013A8B422DD010F0070F42B3F6D1DB
:10021000F0B441EA012141EA014122F007047FF0F4
:1002200000070023F0E80256083C85EA010586EA4B
:10023000010685FA47F5A3FA87F586FA47F6A5FA87
:1002400087F68EB9EED1F0BC01F0FF0102F0070293
:1002500032B110F8013B013A83EA010313B1F8D13E
:100260000020704701387047002D06BF354603381F
:10027000073815F0010F07D1013015F4807F02BF58
:10028000013015F4C03F0130F0BC0138704700BFA9
:1002900053B94AB9002908BF00281CBF4FF0FF31ED
:1002A0004FF0FF3000F074B9ADF1080C6DE904CEE9
:1002B00000F006F8DDF804E0DDE9022304B0704741
:1002C0002DE9F047089D04468E46002B4DD18A4209
:1002D000944669D9B2FA82F252B101FA02F3C2F13C
:1002E000200120FA01F10CFA02FC41EA030E9440CD
:1002F0004FEA1C48210CBEFBF8F61FFA8CF708FBEE
:1003000016E341EA034306FB07F199420AD91CEBC5
:10031000030306F1FF3080F01F81994240F21C81F7
:10032000023E63445B1AA4B2B3FBF8F008FB10333F
:1003300044EA034400FB07F7A7420AD91CEB040474
:1003400000F1FF3380F00A81A74240F20781644444
:10035000023840EA0640E41B00261DB1D4400023C9
:10036000C5E900433146BDE8F0878B4209D9002D2D
:1003700000F0EF800026C5E9000130463146BDE8B7
:10038000F087B3FA83F6002E4AD18B4202D3824221
:1003900000F2F980841A61EB030301209E46002DD0
:1003A000E0D0C5E9004EDDE702B9FFDEB2FA82F225
:1003B000002A40F09280A1EB0C014FEA1C471FFA83
:1003C0008CFE0126200CB1FBF7F307FB131140EA6A
:1003D00001410EFB03F0884208D91CEB010103F137
:1003E000FF3802D2884200F2CB804346091AA4B2F9
:1003F000B1FBF7F007FB101144EA01440EFB00FECD
:10040000A64508D91CEB040400F1FF3102D2A64531
:1004100000F2BB800846A4EB0E0440EA03409CE7D0
:10042000C6F12007B34022FA07FC4CEA030C20FA7D
:1004300007F401FA06F31C43F9404FEA1C4900FA9D
:1004400006F3B1FBF9F8200C1FFA8CFE09FB18111A
:1004500040EA014108FB0EF0884202FA06F20BD98D
:100460001CEB010108F1FF3A80F08880884240F2DD
:100470008580A8F102086144091AA4B2B1FBF9F021
:1004800009FB101144EA014100FB0EFE8E4508D91C
:100490001CEB010100F1FF346CD28E456AD90238A1
:1004A000614440EA0840A0FB0294A1EB0E01A14286
:1004B000C846A64656D353D05DB1B3EB080261EBF4
:1004C0000E0101FA07F722FA06F3F1401F43C5E9CE
:1004D000007100263146BDE8F087C2F12003D84004
:1004E0000CFA02FC21FA03F3914001434FEA1C4746
:1004F0001FFA8CFEB3FBF7F007FB10360B0C43EA38
:10050000064300FB0EF69E4204FA02F408D91CEBE7
:10051000030300F1FF382FD29E422DD902386344E5
:100520009B1B89B2B3FBF7F607FB163341EA034185
:1005300006FB0EF38B4208D91CEB010106F1FF38D4
:1005400016D28B4214D9023E6144C91A46EA0046CB
:1005500038E72E46284605E70646E3E61846F8E65D
:100560004B45A9D2B9EB020864EB0C0E0138A3E7A6
:100570004646EAE7204694E74046D1E7D0467BE787
:10058000023B614432E7304609E76444023842E7FF
:10059000704700BFDFF834D0002103E00C4B5B58FC
:1005A000435004310B480C4B42189A42F6D30B4A85
:1005B00002E0002342F8043B094B9A42F9D303F0CE
:1005C000FDF81BF0F5F900F005FF7047000003206F
:1005D0004C121308000000206C0100206C01002068
:1005E000DC300120FEE7704708B500F02BFDBDE8C8
:1005F000084000F0B7BC00F027BD704710B50421DB
:1006000004461BF05CF9204610BD000038B50C4BC9
:100610000C4C18800C4B822019806368984740F678
:10062000110398420AD1094D23682C608220984713
:100630002B688220DB689847002038BD0120FCE74A
:10064000880100204C0000208A0100208C0100203D
:100650004FF4A071F020FFF7D9BF0000F7B5344D7B
:100660002B6804461B698220984780B220800028AE
:100670004CD02B680DF106025B6901A982209847D6
:10068000BDF8063040F67462934241D9ADF80620B9
:10069000BDF80620C2F56762043292B20A2A3DD93B
:1006A0000B23B2FBF3F2234B1B889A4201D9013B87
:1006B0009AB2BDF8043040F6B8318B4230D8C3F559
:1006C00071630E339BB20F21B3FBF1F31A49098812
:1006D0008B4201D94B1E9BB2184E194D30682F68C2
:1006E000834281B28CBF591AC91AB8B2BA428CBFC0
:1006F000101A801A89B280B201440529C8BF33603C
:100700003368C8BF2A6063802B68A38003B0F0BD44
:10071000B32B9CBFB423ADF80630B9E70022C8E77D
:10072000C3F56D6308339BB20E2BCCD80023D3E7FF
:100730008C0100208A010020880100209001002007
:100740009401002037B568460D461446FFF786FF32
:10075000BDF8000030B1BDF802302B60BDF80430A8
:100760002360012003B030BD032821D8DFE800F06A
:10077000020B12190F4B1A68B2FA82F252090421C5
:100780000D4803F0B3BA0B4B5A68B2FA82F2520921
:100790000821F5E7074B9A68B2FA82F25209102154
:1007A000EEE7044BDA68B2FA82F252092021E7E759
:1007B000704700BF9801002000100240032821D894
:1007C000DFE800F0020B12190F4B1A68003A18BF4D
:1007D000012204210D4803F089BA0B4B5A68003AF4
:1007E00018BF01220821F5E7074B9A68003A18BFA5
:1007F00001221021EEE7044BDA68003A18BF01220B
:100800002021E7E7704700BF980100200010024058
:1008100003280DD8DFE800F00206080A0421054885
:1008200003F069BA0821FAE71021F8E72021F6E77A
:10083000704700BF0010024008B5032811D8DFE858
:1008400000F0020A0C0E0421074803F049FA431E87
:100850005842584108BD0821F6E71021F4E720214D
:10086000F2E70020F3E700BF0010024070B5084D2A
:1008700000240126E0B2FFF7DFFF18B12B68012B3F
:1008800018BF2E600134052C05F10405F2D170BDAE
:1008900098010020012380F8781080F879307047A3
:1008A00000207047034B4164003918BF01211970C3
:1008B000704700BFE725012000207047836B0BB114
:1008C0000846184770474FF6FF7070474068036846
:1008D0009B691847704770477047000070B5044621
:1008E00000F080FC2368D3F88850044BD4E90F1241
:1008F0002046AC46BDE87040604700BF000000D015
:1009000008B503680446D3F880309847236820462A
:100910009B6F984700F0ECF8236820461B6F9847C0
:10092000292000F0A3FF00F0E3F8236820461B6FA6
:100930009847F8E710B5044608F0E6FA2368204621
:10094000D3F8AC30BDE81040184700F03DBC00F0D3
:1009500041BC00F065BC00F013BC00F06DBC00F0C1
:1009600075BC00F017BC07F03BBD10B57C210446F8
:100970001AF0A5FF204610BD90F87A301BB14068F0
:1009800003681B68184718467047000010B590F8B8
:10099000341090F878400C4B8C421A7809D03AB950
:1009A0000A4A0B491488088810800C8001221A70AA
:1009B00010BD002AFCD0054A05491488088810801B
:1009C0000C800022F3E700BFE0250120DC25012098
:1009D000DE25012070B50D46194635B9094B0A4A86
:1009E0000A4840F2D2211AF099FFC0E90F52084B91
:1009F000003A18BF01221A700368BDE87040D3F8AE
:100A00008C301847ECCA010824CB010872CB0108CE
:100A1000E625012008B5094B1B888B4203D8084BFB
:100A20001B88934205D9074B074A08489E211AF0B4
:100A300075FF074B1980074B1A8008BDDC25012084
:100A4000DE250120B7CB01081ACC010872CB0108C2
:100A5000E2250120E4250120012108B500220846F5
:100A600005F061F90A4B186028B90A4B0A4A282197
:100A70000A481AF053FF00220421012005F0F9F979
:100A8000074B186018B9074B034A2C21F0E708BD43
:100A9000AC01002038CD010881CD0108B0CD01089E
:100AA000A8010020F8CD0108024B4FF0FF31186873
:100AB00005F083B9AC010020014B186805F0A8B916
:100AC000AC010020024B0021186805F076B900BF88
:100AD000AC010020FFF7F0BF034804490068002381
:100AE0001A4605F001BA00BFA8010020040000204A
:100AF00013B5084C00231A4601A9206805F024FA12
:100B000020684FF0FF33002201A905F01DFA02B062
:100B100010BD00BFA801002003685B6C18470120CE
:100B2000704703689B6A184782B0002301930D4BFE
:100B30001A6B42F400021A631A6B02F4000201926B
:100B4000019A1A6942F400021A611A6922F4000239
:100B50001A61054B054A1A61054B4FF080629A6095
:100B600002B070470038024088150020B50B00081D
:100B700000E100E040F2EF3070470000054B0360F9
:100B8000054B4FF08062C3F88820BFF34F8FBFF34F
:100B90006F8F704790CF010800E100E010B5044668
:100BA0004FF45A61FFF7EAFF20461AF088FE20460C
:100BB00010BD0000024B1B68586803685B6918474A
:100BC000E825012070B5044625460A4B0C30002666
:100BD00060602672667245F8203B6022294608F064
:100BE000D1FA04F55A63EE602435AB42FBD12046BE
:100BF00070BD00BF90CF010808B50B290BD8DFE806
:100C000001F01206100A0A0A0A080808080801205A
:100C100008BD0520FCE7054B054A064865211AF08A
:100C20007DFE0020F4E70220F2E700BF3ACE010883
:100C300055CE01089FCE010808B50A2909D8DFE87A
:100C400001F010060E080808080606060600012036
:100C500008BD054B054A064886211AF05FFE0020B4
:100C6000F6E70220F4E700BF3ACE0108E5CE01081E
:100C70009FCE01082DE9F8434F7F0C463946814647
:100C8000FFF7BAFF94F81E80054641464846FFF735
:100C9000B3FF414606464846FFF7CEFFA18A628B66
:100CA000424B521A1A649A61228B521A1A61E28AD2
:100CB000586342EA01425A6420696268D863DA6084
:100CC000216894F81CC080294FEA0C6226D010D805
:100CD000202945EA020461D040295FD004295DD073
:100CE000324B2A4342F400324745DA615AD0304A47
:100CF00040E0B1F5807F07D0B1F5007FF0D142F43C
:100D0000003242F0090203E042F4003242F00A02EB
:100D1000DA61E2681A625E6258612AE0A4682A43D6
:100D200042F40032211DD962DA6122785E62586194
:100D300042B1012A21D01F4B1F4A20484FF488712D
:100D40001AF0ECFDDA69618822F47F42013922F061
:100D5000100242EA0122DA610120144BDA6942F002
:100D60002002DA61DA699206FCD410229A60002827
:100D7000BDD0134A1A60BDE8F8836288D969541E51
:100D800021F47F4222F0100242EA0422BCF1FF006B
:100D900042F0100218BF0120DA61DEE744F40034AB
:100DA000DC61B8E740F20122E4E700BF00B0024096
:100DB0000102010030CF01084ACF01089FCE01088F
:100DC0000102020070B50C46897FFFF735FFA68A45
:100DD000E18A628B154B2569586341EA0641921BF3
:100DE0005964DD631A642668E168082E0DD19A61A2
:100DF0001A615862207F0E4A42EA0062DA610D4AA7
:100E000019625D61DD601A6070BD0022D8611A61EF
:100E100048090A0A02F4784200F4FC600243C1F374
:100E2000C4010A439A63044AEDE700BF00B00240E0
:100E300009000100010202000102030001207047C5
:100E40000C2070470C2303FB0100083070470C2373
:100E500003FB010008307047012070474FF45A70BF
:100E600070474FF45A7303FB0100083070474FF48A
:100E70005A7303FB010008307047012070471020AF
:100E8000704700EB01100830704700EB011008308C
:100E90007047084601F0D6B910B5034B036004460D
:100EA00006F0F5FF204610BD48D0010810B50446F5
:100EB000FFF7F2FF204614211AF001FD204610BD75
:100EC00010B5034B0360044606F0E1FF204610BD59
:100ED00014D0010810B50446FFF7F2FF20464FF486
:100EE0005C711AF0ECFC204610BD000010B5034BFD
:100EF0000360044606F0CBFF204610BDE0CF01089A
:100F000010B50446FFF7F2FF204618211AF0D7FC6F
:100F1000204610BD10B5084B0360044600F567700D
:100F2000FFF7BAFF04F12C00FFF7CAFF04F1140029
:100F3000FFF7DCFF204610BD7CD0010808B5024851
:100F4000FFF7E8FF08BD00BFB401002010B504465C
:100F5000FFF7E0FF20464FF4A2611AF0B0FC2046F4
:100F600010BD00002DE9F34100F0ECFF054600F054
:100F7000EDFF0024014623462846224600940DF04A
:100F800051F8254B254A264D1A60204601F016FFE0
:100F900024480CF0AFFF2B78BFF35B8FDB0735D411
:100FA00028461AF08EFC88B31F4C204B236004F5B2
:100FB0006D7604F1140004F12C0804F56777606085
:100FC000C4F80880E760266106F062FF184B636191
:100FD000404606F05DFF174BE362384606F058FFC7
:100FE000154BC4F89C3304F56C7001F067FF224682
:100FF00004F56C71304601F057FF304601F022F9DC
:101000000E481AF0A9FC28461AF067FC0C4802B0FA
:10101000BDE8F041FFF762BC44260120E414002043
:10102000B001002008000020B40100207CD001089D
:10103000E0CF010814D0010848D001083D0F000896
:1010400068140020704700000148FFF759BC00BF3A
:101050006814002070B5224E224C234D234B236090
:101060003046FFF7AFFD284611F0A8FA204B214883
:10107000DC6000224FF48071C3E912121E491A8607
:10108000C3E91A121D4999671D4983F858200B605E
:10109000F02101801B485A6601801B4883F87020AC
:1010A0004FF4A071C3E90422C3E90622C3E9082270
:1010B000C3E90A22C3E90E22C3E91022C3E91422BC
:1010C000C3E917225A67C3E9016501800F4801800F
:1010D0000F490A70012283F834200E4A1A6070BD4D
:1010E000C8060020C4060020E8140020DCCA01085D
:1010F00068140020DC25012001000001000001012E
:10110000E8250120E2250120DE250120E42501203B
:10111000E025012068CC01080148FFF72FBD00BF82
:10112000C80600200020704781807047C18070474A
:101130000181704741817047704770477047704721
:10114000704710B4C4880368121B84885B6D091B48
:1011500012B25DF8044B09B218474FF6FF73838152
:101160004FF0FF3303621368C3611060704790F85B
:1011700025201AB190F8242002B1186070470000B1
:10118000034B902283F85A2383F85823704700BFFB
:1011900000E100E0094A0A49D3680A48C3F30A0398
:1011A000013B9BB20B801169C1F30A010139018037
:1011B0001364536B43F001035363704700680140AD
:1011C0006E1500206C150020014BD3F8AC00704761
:1011D00000680140024B0122C3F8AC105A6270470C
:1011E0000068014070B5044607F04FF923685D6E52
:1011F00009F0EAFE01462046A8472368054AD3F8CD
:1012000088502046AC460023BDE87040A2F5163158
:10121000604700BF00B004D007F01EB907F028B93E
:1012200007F0E4B807F045BA90F8252012B103683A
:101230005B69184770470000034B4FF080629A606B
:101240004FF080729A60704700E100E0084B4FF069
:101250008062C3F88820BFF34F8FBFF36F8F4FF0CA
:101260008072C3F88820BFF34F8FBFF36F8F704732
:1012700000E100E010B5144C236823B3134B144A6B
:101280001B6C11888B4213D1124B198803F014FB8D
:10129000226892F86A30013382F86A30FFF71CFC4A
:1012A000206807F031FEBDE810400020FFF75CBA6F
:1012B00003F002FB206803681B6A9847BDE81040F2
:1012C0000020FFF77BBA10BDE8250120006801402F
:1012D0006E1500206C15002007B5064BADF8060012
:1012E0001B68054801220DF1060104F031F803B036
:1012F0005DF804FB10000020F816002037B50D4DF6
:101300000D4C0121284602F0EBFC01280ED120688B
:1013100004F049FE012809D852238DF807302068CF
:10132000C82300220DF1070104F0DEFD0A2004F0BD
:10133000EEFCE6E7000002407815002030B595B0DD
:10134000102200210AA81AF075FB1422002103A81C
:101350001AF070FB00241D4B01941A6C42F080526D
:101360001A641B6C03F080530193019B184B029489
:101370001A6842F440421A601B6803F44043029327
:101380000122029B4FF48033CDE9082302254FF45C
:101390008003CDE90E5308214FF4A873CDE9101353
:1013A00008A804231393129503F0A4FA0F23CDE9A0
:1013B00003354FF4A0504FF48053CDE906030521C7
:1013C00003A8059403F074FC15B030BD003802404A
:1013D0000070004080B59AB002F0FEF9FFF7AEFF52
:1013E000142200210DA800241AF024FBC34B009402
:1013F0001A6BC348C34D42F010021A631A6B02F015
:1014000010020092009A01941A6B42F020021A63B3
:101410001A6B02F020020192019A02941A6B42F0B8
:1014200080021A631A6B02F080020292029A0394FD
:101430001A6B42F004021A631A6B02F00402039260
:10144000039A04941A6B42F001021A631A6B02F0B9
:1014500001020492049A05941A6B42F002021A6384
:101460001A6B02F002020592059A06941A6B42F07A
:1014700040021A631A6B02F040020692069A079421
:101480001A6B42F008021A631B6B03F00803079300
:1014900022463C21079B02F029FC9B48224604215E
:1014A00002F024FC224699484FF4405102F01EFC01
:1014B00001264FF003083C239148CDF840800DA948
:1014C00002274FF0040ACDE90D360F9402F022FBFB
:1014D0008D480F940DA9CDE90DA6109702F01AFBC7
:1014E0004FF4405389480DA9CDE90D36CDE90F479A
:1014F00002F010FB0DA986480F94CDE90D6402F0AF
:1015000009FB8448844B036002F0F8F9834A844B5A
:101510002C62C5E9002328464FF48043C5E9043412
:10152000C5E90244C5E9064402F0CAFD1021284677
:1015300003F006F82146284603F021F879487A4955
:1015400084624FF48273C0E900134FF400751823CE
:10155000C0E906530A23754DC362C0E90244C0E9DD
:101560000444C0E9084403F097FE714B0D974FF017
:10157000100CC5E900364023C5E904C34FF4C0731D
:10158000C5E906344FF40063C5E908344FF400534D
:10159000AB620DA907232846CDE90E3ACDE91038F4
:1015A0004FF00809C5E9024ACDE9127703F074FD4E
:1015B0004FF6FF7209A92846CDE90A9608940996C4
:1015C0000C9403F089FD304602F032F94FF6FF72B9
:1015D00009A92846CDE90979CDE90B6403F07CFD22
:1015E0004FF6FF7209A92846CDE90989CDE90BA478
:1015F00003F072FD4FF40C730893089B0C934FF6A5
:10160000FF7209A92846CDE909A90B9603F064FDEC
:1016100040F26A51284603F07DFD342221460DEB4D
:1016200002001AF007FA434D434BAC86C5E900347B
:101630000923C5E905361D2340F20D1EC5E907380B
:1016400040F24313C5E909E3284640F2471340F24C
:101650001718C5E90B83C5E902442C6185F83640AB
:1016600003F032F8FF21F022CDE912144FF4806A22
:1016700005214FF4A073CDE90E24CDE914A1CDE9E5
:1016800016420DA922462846CDE910372B4D189356
:101690000D94ADF864408DF8664003F0E0F8284BF7
:1016A0002B601B6898472B68264DDB689847264BB4
:1016B000C5E90A47C5E90C442846C5E90034C5E92F
:1016C000027402F02BF93146284602F0DFF9FEF7EA
:1016D0008BFFFEF788FF04F0A5FA1C4A3146484606
:1016E00004F0C7FB1A4B1B4A186021461A4804F045
:1016F000C5FA1A4B1A4A1860214633E000380240F6
:1017000000100240C815002000080240000C0240F2
:10171000000002408015002000300240005C0040C4
:10172000A0860100F816002000500140C4160020D9
:10173000400100A01C160020006801407415002024
:10174000140000208815002000B00240C8D0010815
:1017500078150020E0D00108FD1200087C1500205B
:10176000A4D00108034804F089FA034B186004F080
:101770006BFAFEE7F7050008701500207047704708
:101780007FB5094B8DF817201B6802930DF11702E6
:101790000123009201930A460146044802F038FDF5
:1017A00007B05DF804FB00BF0C000020C815002046
:1017B0007FB500238DF81730084B1B6802930A464B
:1017C00001230DF11701009101930146044802F035
:1017D000AFFD9DF8170007B05DF804FB0C0000207A
:1017E000C81500201FB5084C24680092CDE90134CB
:1017F0000A4601230146054802F09AFD003818BF49
:10180000012004B010BD00BF0C000020C81500204E
:1018100002F00EB808B506480022042102F066FA6C
:10182000BDE8084002480122042102F05FBA00BF6F
:101830000008024038B50B4D044601220A484FF417
:10184000005102F053FA00220421284602F04EFA19
:101850002046FFF741FD28460122BDE8384004211B
:1018600002F044BA00080240000C024038B50B4DAB
:10187000044600220A484FF4005102F037FA0022D1
:101880000421284602F032FA2046FFF725FD2846BB
:101890000122BDE83840042102F028BA00080240C5
:1018A000000C0240F7B5144E144F05460C46304666
:1018B0000022042102F01AFA00224FF400513846A7
:1018C00002F014FA2846FFF707FD0D4B0D481B6880
:1018D000224601A903F0DEFE384601224FF40051F2
:1018E000019C02F003FA30460122042102F0FEF9C5
:1018F000204603B0F0BD00BF00080240000C0240CB
:1019000010000020F816002001F092BF0268034B7F
:101910009A4201D101F07ABF704700BF0010004029
:101920007047000082B00E4B00220092596C41F4C7
:1019300080415964596C01F48041009100990192F1
:10194000196C41F0805119641B6C03F080530193B2
:10195000019B0F216FF0010002B001F08FBF00BFAB
:10196000003802400268094B9A4282B00BD1002332
:101970000193074B1A6B42F480521A631B6B03F4FA
:1019800080530193019B02B0704700BF00300240BA
:101990000038024007B50F4B02689A4216D1002268
:1019A000A3F5F0430192196B41F4000119631B6B1D
:1019B00003F40003019305215A20019B01F05EFF0F
:1019C0005A2003B05DF804EB01F08ABF03B05DF864
:1019D00004FB00BF00B002402DE9F043044689B08B
:1019E0001422002103A81AF025F82268244B9A42F9
:1019F00043D1244C244800250095236B43F0040375
:101A00002363236B03F004030093009B0195236B76
:101A100043F001032363236B03F001030193019B54
:101A20004FF012094FF400734FF00108032704260A
:101A300003A9CDE90339CDE90587079602F06AF8D5
:101A40004FF480731148079603A9CDE90339CDE916
:101A5000058702F05FF80295236C43F400032364CA
:101A6000236C03F400030293029B236A43F40003F4
:101A70002362236A23F40003236209B0BDE8F083E4
:101A8000005C0040003802400008024000000240B4
:101A9000F0B599B004461422002107A819F0CAFF36
:101AA00030220DEB0200002119F0C4FF22685E4BCA
:101AB0009A4240F0B78008230C93C023109304236C
:101AC00012930CA84FF40033159303F0BBF908B13F
:101AD000FFF726FF554B5648002400945A6C42F0FD
:101AE00080625A645A6C02F080620092009A0194FB
:101AF0001A6B42F020021A631A6B02F02002019264
:101B0000019A02941A6B42F001021A631A6B02F0F6
:101B100001020292029A03941A6B42F002021A63C3
:101B20001A6B02F002020392039A04941A6B42F0B9
:101B300040021A631A6B02F040020492049A059460
:101B40001A6B42F004021A631A6B02F00402059247
:101B5000059A06941A6B42F008021A631B6B03F095
:101B60000803069302250E26069B0B964FF480630E
:101B700007A9CDE90735CDE9094501F0CBFF41F6CD
:101B800058032C480B9607A9CDE907350927CDE95D
:101B9000094501F0BFFF032327480B9707A9CDE9AB
:101BA0000735CDE9094501F0B5FF4FF470632248D0
:101BB0000B9607A9CDE90735CDE9094501F0AAFF44
:101BC0004FF40C631D480B9607A9CDE90735CDE905
:101BD000094501F09FFFC02319480B9607A9CDE9DD
:101BE0000735CDE9094501F095FF082315480B9607
:101BF00007A9CDE90735CDE9094501F08BFF4FF481
:101C0000A0530E480B9707A9CDE90735CDE9094543
:101C100001F080FF58202246052101F02FFE5820B8
:101C200001F05EFE19B0F0BD0068014000380240CE
:101C3000001402400000024000040240001802406C
:101C400000080240000C024010B5044688B014227F
:101C5000002103A819F0EEFE2268144B9A4223D10A
:101C600003F56843002101915A6C114842F4801237
:101C70005A645A6C02F480120192019A02911A6B12
:101C800042F020021A631B6B03F020030293029BB5
:101C90004FF4607202230321CDE903230523CDE92C
:101CA000061303A901F036FF08B010BD0050014033
:101CB000001402402DE9F04186B0002303932B4B22
:101CC0001C68002C4FD14FF00108C3F80080284B4E
:101CD00000949A6B274842EA08029A639B6B03EAD6
:101CE00008030093022703260C25009B01A94FF649
:101CF0003F03CDE90137CDE9046501F00BFF1E4834
:101D0000059501A9CDE90187CDE9034601F002FF60
:101D100048F233131948059501A9CDE90137CDE9FA
:101D2000034601F0F7FE4FF683731548059501A9A8
:101D3000CDE90137CDE9034601F0ECFE4CF2037327
:101D40001048059501A9CDE90137CDE9034601F019
:101D5000E1FE60230C48059501A9CDE90137CDE9E5
:101D6000034601F0D7FE06B0BDE8F0815017002011
:101D700000380240001402400008024000180240EF
:101D800000100240000C02400004024070B588B010
:101D900000230293204B1A6C42F010021A641B6C51
:101DA00003F010030293054601A903A8029B03F068
:101DB0002BF8069B4BBB03F017F8184E184B3360FB
:101DC00040F2E733F360174BB0FBF3F3013B736072
:101DD000304600233361B360B36103F047FE04462D
:101DE00080B9304603F0FCFC044658B9362001F0B7
:101DF00077FD0F2D0DD822462946362001F03EFDF5
:101E0000094B1D60204608B070BD02F0EDFF400098
:101E1000D3E70124F6E700BF003802405417002042
:101E20000010004040420F007C0000207047FEE799
:101E3000FEE7FEE7FEE77047014803F00FBD00BF75
:101E400054170020014802F0ADBC00BF1C16002052
:101E5000014801F091BD00BF8815002001207047A6
:101E600008B519F08DFD162303604FF0FF3008BD53
:101E700008B519F085FD16230360FEE770B50D4621
:101E800014460E46731B9C4201DC204670BDAFF326
:101E9000008006F8010BF5E770B50D4614460E46B6
:101EA000731B9C4201DC204670BD16F8010BAFF39A
:101EB0000080F5E74FF0FF3070474FF400534B6060
:101EC0000020704701207047002070470A4A1168BF
:101ED00008B5034609B90949116010686946034409
:101EE0008B4206D919F04CFD0C2303604FF0FF30F4
:101EF00008BD1360FCE700BF9C170020E030012004
:101F0000704710B50421044619F0D9FC204610BDD5
:101F100008B5032913D8DFE801F002060A0E00F025
:101F200099FF006808BD00F095FF4068FAE700F0EF
:101F300091FF8068F6E700F08DFFC068F2E70020AF
:101F4000F0E700000048704718D101080A207047E8
:101F500013B5002451B1036801948DF8034001AA20
:101F60009C680DF10303A04702B010BD0846FBE7D3
:101F7000C0897047008A7047C08870478088704762
:101F8000807A00F07F007047807AC0097047704700
:101F900010B50821044619F092FC204610BD704788
:101FA000704700F598730868496803C37047704725
:101FB0007047416070477047064BC0F84C310023B2
:101FC000C0F8503100F5A273C0F84801C0F84031A4
:101FD000704700BF7D2000080123037270477047DF
:101FE000704710B4C26841685410034601EB6200A8
:101FF000D20748BF0A599B685DF8044B48BFD358C5
:10200000184743682BB183682BB9C06800F0010002
:102010007047184670470120704710B50C210446E0
:1020200019F04DFC204610BD10B51021044619F0E2
:1020300046FC204610BD10B54FF4AE71044619F0B1
:102040003EFC204610BD10B508F0BEFF0368BDE899
:102050001040DB6B184710B50446D0F8400158B16A
:102060000368DB68984738B1D4F8400103689B687F
:1020700098470023C4F8403110BD00002DE9F14F0E
:10208000D0E9555A0746A86803681B6A9847B0F517
:102090005A7F05D2454B464AA321464819F03EFCDB
:1020A000686803681B6A98470F2803D8424B404A68
:1020B000A421F2E7E86803681B6A98470B2803D855
:1020C0003E4B3B4AA521E8E708F07EFFDFF8F4909D
:1020D000043008F09EFFD9F8000010B10368DB68F7
:1020E0009847D9F8000010B103681B689847DFF8DB
:1020F000D880D8F8000010B103685B699847D7F81A
:102100003C0110B103685B689847D8F8000010B133
:1021100003681B689847D7F83C0110B103689B68B7
:102120009847E868036800215B6A98474FF0000B06
:10213000234B03600446C0F804B080F808B0A868D8
:10214000036859465B6A9847064600F0EFFE6868E8
:10215000036859465B6A98473146054600F0C0FE61
:10216000C9F80040C7F83C51C8F80060E5B12B1D24
:10217000CAF800303368C5F808A03046DB68F5635C
:1021800098472B6828461B689847214630460AF036
:10219000E5FB236820461B69984723685B69204656
:1021A00001B0BDE8F04F18472B46E1E7F0D1010838
:1021B0007ED2010882D30108C9D301086CD401087A
:1021C00084D501082826012024260120044B1B6801
:1021D00093F858200AB1D86C00B99868704700BFCE
:1021E000E8250120F8B5044617460E4608F0AEFF74
:1021F000104B1C60104B2360104B0025C4E9513577
:102200000F4BC4E953551868036801219B68C4E962
:102210004F55C4E955769847284600F0CFFDFFF7A3
:10222000D5FF11F0FAFFFFF7D1FF12F071F8204649
:10223000F8BD00BF3426012030D5010818D50108AB
:10224000E8250120064BC0F84C310023C0F850317E
:1022500000F5A273C0F84801C0F84031704700BFD4
:102260007D200008406A7047806A704770478B88FD
:10227000C0690A68DB0A50F823001044704710B5A3
:10228000C2B1137BB3B1547BD27A240204F4E0646C
:102290001443026A98B202EB840213888B4202D183
:1022A00092F9020010BD05D8013880B2043200282E
:1022B000F3D1F7E70020F5E710B52C21044619F01B
:1022C000FEFA204610BD000030B58BB00446BDF8C4
:1022D00060500895BDF85C5007959DF850500695E4
:1022E0009DF84C5005959DF8485004959DF8445034
:1022F00003959DF8405002959DF83C500195BDF81E
:102300003850009509F084FF064B2360159BE3616C
:10231000169B2362199B63621A9BA36220460BB033
:1023200030BD00BFA8D50108806A7047704770476C
:1023300070477047704730B50368018185B06D46BE
:102340000146D3F8843004462846984795E80700AC
:102350003C3484E8070005B030BD30B503684181E6
:1023600085B06D460146D3F8843004462846984728
:1023700095E807003C3484E8070005B030BD002232
:10238000028042808280C280704780F83610704799
:1023900070B5036804461B6B1546984723682946A9
:1023A00020465B6EBDE87040184700207047806C87
:1023B000704770477047704770477047704730B438
:1023C000C26844685510034604EB6200D20748BF58
:1023D00062599B6830BC48BFD358184743682BB13B
:1023E00083682BB9C06800F0010070471846704739
:1023F0000120704790F82D3080F85C30704701461E
:10240000343091F82C3013B1623107F090B860315C
:10241000FBE710B54C21044619F051FA204610BDD7
:1024200010B56421044619F04AFA204610BD10B5D3
:102430001021044619F043FA204610BD10B54FF4A0
:102440005271044619F03BFA204610BD08B5FEF75C
:10245000EBFE08BD10B50446006B50B10368DB68A5
:10246000984730B1206B036821469B68BDE8104057
:10247000184710BD00F532728A4202D10368DB6A48
:1024800018477047036870B55E6B124B1B680446B3
:102490008DB22BB9104B114A6C21114819F03EFA3C
:1024A0001049828D0988914203D80F4B0B4A6D2148
:1024B000F3E713F812200D4B1B6853F82200036852
:1024C0001B6B9847281A01B233462046BDE870407E
:1024D000184700BF3826012000D6010842D601085F
:1024E0007DD601083C260120C4D6010840260120E3
:1024F00070B50D7990F82C3004463DB93BB1236896
:102500002046D3F88830BDE8704018477BB1B5FA53
:1025100085F35B0984F82C3023682046D3F88C308F
:102520009847236820465B699847002DE7D070BD27
:1025300000224FF0FF31C0E900218260704770B582
:10254000036804461B6B15469847236829462046B6
:102550005B6BBDE87040184770B5036804469B6B21
:1025600015469847236829462046DB6BBDE8704036
:1025700018470B8837B5A0F860300546138825F852
:10258000623F044628460BF061FD019028460BF09F
:1025900091FD019902462046FFF7DEFF2368D3F83C
:1025A0008C30204603B0BDE8304018470022C0E917
:1025B0000122C0E90322C0E90522C0E907224FF445
:1025C00080728284014A0260704700BF48D70108C8
:1025D00038B5262204460D46002119F02BFA204674
:1025E000FFF7E4FF064B23602B88E384FF2320469C
:1025F00084F82830294606F09AFF204638BD00BFEF
:1026000050DD0108F7B54FF47F430646838540F25D
:10261000011300258384134B8562C0E90155C0E98D
:102620000355C0E90555C0E90755056346F8343B35
:1026300004464FF6FF7701A93046ADF80470FFF766
:10264000C7FF2A4629463046A4F86070A4F8627095
:10265000FFF775FF2046314605F02CFC204603B0FD
:10266000F0BD00BF40D801082DE9F04F2DED0A8BD9
:10267000044689B0A046002509F0C4FFE64BE56397
:1026800048F8403B26222946404619F0D3F94046F7
:10269000FFF78CFFE14B236404F16C0BFF234FF633
:1026A000FF7604F1980A84F8663006A95846A566B4
:1026B00004F1C409ADF81860FFF78AFF06A9504677
:1026C000ADF81860FFF784FF06A94846ADF818601A
:1026D000FFF77EFF04F1F00306A91846ADF8186075
:1026E0000193FFF775FF04F58E7306A9184608EEEF
:1026F000103AADF81860FFF76BFF04F5A47306A954
:10270000184608EE903AADF81860FFF761FF04F53F
:10271000BA7306A9184609EE103AADF81860FFF72B
:1027200057FF04F5D07306A9184609EE903AADF8A4
:102730001860FFF74DFF04F5E67306A918460AEE88
:10274000103AADF81860FFF743FF04F5FC7306A9D3
:1027500018460AEE903AADF81860FFF739FF04F515
:10276000097306A918460BEE103AADF81860FFF78A
:102770002FFF04F5147304F51F77184606A90BEE16
:10278000903AADF81860FFF723FF29462622384615
:1027900019F050F93846FFF709FF4FF47F02A04BBC
:1027A000C4F8B0229F4AC4F8A432C4F87C2204F5CD
:1027B00032734FF0FF321846C4E9AF25A4F8A8627F
:1027C000C4F8AC52A4F8B452C4F8B852C4F8C45215
:1027D0000CEE103AFFF716FF934AC4E9CE24934A51
:1027E0004046C4E9D02529462A46FFF7A8FE4046C0
:1027F0004FF4A072F021261DFFF7AEFE4FF07F428E
:102800004146A266304605F055FB2A465846294601
:10281000FFF795FE4FF00103584606A9ADF81830B2
:1028200006F085FE5946304605F044FB50462A46E0
:102830002946FFF784FE0222504606A9ADF818206B
:1028400006F075FE5146304605F034FB48462A46F0
:102850002946FFF774FE0322484606A9ADF8182062
:1028600006F065FE4946304605F024FB019B2A46EA
:1028700018462946FFF763FE019B4FF0040B1846EC
:1028800006A9ADF818B006F052FE019B3046194675
:1028900005F010FB2A4618EE100A2946FFF74FFEF6
:1028A0004FF0050A18EE100A06A9ADF818A006F0B8
:1028B0003EFE18EE101A304605F0FCFA2A4618EED5
:1028C000900A2946FFF73BFE062318EE900A06A958
:1028D000ADF8183006F02BFE18EE901A304605F0D1
:1028E000E9FA2A4619EE100A2946FFF728FE0723BF
:1028F00019EE100A06A9ADF8183006F018FE19EE08
:10290000101A304605F0D6FACD2219EE900A4FF48F
:102910009671FFF714FE4FF0090819EE900A06A908
:10292000ADF8188006F003FE19EE901A304605F057
:10293000C1FA6FF0A4021AEE100A4FF49671FFF775
:10294000FEFD4FF008091AEE100A06A9ADF818901E
:1029500006F0EDFD1AEE101A304605F0ABFA9022A3
:102960001AEE900A5A21FFF7EAFD1AEE900A06A91C
:10297000ADF8185006F0DBFD1AEE901A304605F05F
:1029800099FAFE221BEE100A4FF4F071FFF7D7FD03
:102990001BEE100A06A9ADF8188006F0C8FD1BEE64
:1029A000101A304605F086FA6FF087021BEE900A87
:1029B0004FF4F071FFF7C3FD1BEE900A06A9ADF8C6
:1029C000189006F0B4FD1BEE901A304605F072FA2E
:1029D0005A4656213846FFF7B2FD1F224521384698
:1029E000FFF7BAFD124BC4F8AC32D4F87C32A4F82D
:1029F000B0520DEB09084046D3F884303946984769
:102A000098E8070004F52E7383E80700094B1B685C
:102A100004F54B78B3B90FE0F8D80108E8DC0108F9
:102A2000E8D10108B0D70108E0D8010875240008F2
:102A3000FAFAFCFF38260120254B264A6021264859
:102A400018F06CFF254B1B881BB9254B214A6121CF
:102A5000F5E7244B2946186800F0ECF9224A0346B2
:102A6000514640460BF038FA204B069306A94FF02A
:102A700001033846C4F8C482ADF81C3006F090FC5F
:102A80003946304605F016FA2A46294604F53F70C5
:102A9000FFF755FD04F54E73C4F8F8321CEE100A2A
:102AA0002A46294684F8ED52FFF749FD1CEE100A2C
:102AB0004FF4A072F021FFF74FFD30461CEE101AC4
:102AC00005F0F8F9204609B0BDEC0A8BBDE8F08F9F
:102AD00000D6010802D701087DD601083C26012056
:102AE000C4D60108442601203AD70108E8D10108DC
:102AF0007047000030B5164D2C78BFF35B8F14F093
:102B000001048FB021D1284618F0DBFEE8B13F2345
:102B10000993104B0893104B104911480A94CDE9C2
:102B2000064301220423CDE90332192300930B222B
:102B3000CDE90B44CDE901440594FFF7C5FB0948F5
:102B400018F00AFF284618F0C8FE05480FB030BD3F
:102B5000A0170020F0EA010800EB010824EA0108B0
:102B6000A4170020F12A00087047000030B5164D68
:102B70002C78BFF35B8F14F001048FB020D128466E
:102B800018F09FFEE0B13F230993104B0893104BC0
:102B9000104911480A940122CDE906430423CDE9E6
:102BA00003320A230093CDE90B44CDE90144059497
:102BB000FFF78AFB094818F0CFFE284618F08DFE73
:102BC00005480FB030BD00BFD0170020F4EA01085F
:102BD00004EB0108C0EA0108D4170020692B0008A3
:102BE0007047000030B5164D2C78BFF35B8F14F0A2
:102BF00001048FB020D1284618F063FEE0B13F23D6
:102C00000993104B0893104B104911480A94012264
:102C1000CDE906430423CDE9033214230093CDE923
:102C20000B44CDE901440594FFF74EFB094818F029
:102C300093FE284618F051FE05480FB030BD00BF86
:102C400000180020F8EA010808EB0108D0EA0108A2
:102C500004180020E12B00087047000030B5164D25
:102C60002C78BFF35B8F14F001048FB020D128467D
:102C700018F027FEE0B13F230993104B0893104B47
:102C8000104911480A940122CDE906430423CDE9F5
:102C9000033228230093CDE90B44CDE90144059488
:102CA000FFF712FB094818F057FE284618F015FEEA
:102CB00005480FB030BD00BF30180020FCEA010805
:102CC0000CEB0108E0EA010834180020592C000838
:102CD00000207047002070470EB403B503AB0021FD
:102CE00053F8042B019309F0BBF802B05DF804EB34
:102CF00003B070470CB407B504AB53F8042B019331
:102D000009F0AEF803B05DF804EB02B070470000C4
:102D1000436C10B5044673B3038F2BB9184B194A93
:102D2000C521194818F0FAFDC38E00EB43035B8CF4
:102D30000BB30AF028FB238F012B03D8134B144A43
:102D4000CB21EEE7E28E531C9BB2092B194688BFBC
:102D5000A3F10A0104EB410140F63F10498C814286
:102D600009D10A2B04EB420228BF002304EB4303E2
:102D7000508C588451842046BDE810400AF006BAB1
:102D800028D9010831D90108DCD9010826DA01085F
:102D900034DA01080AF0C1B910B586B002AC84E893
:102DA00006001A460AAB05930193099B009321463E
:102DB000089B07F0A7FC06B010BD000038B518BB93
:102DC000124B13481B681349B3B11A689C681A4424
:102DD00002605A681A440A601C440F4B00221A8091
:102DE00000F038F8054600F033F80C4B1C600C4B33
:102DF0001D600C4B188007E00B4B03600B4B0B6006
:102E00000B4B1C68002CE8D138BD00BF60180020B7
:102E100064180020681800206C1800203826012053
:102E2000402601203C26012018EB010810EB010888
:102E300024EB0108044B1B6853F82100034B1B686B
:102E400003EB4000704700BF6818002064180020A2
:102E500002207047004870477018002010B5FFF737
:102E6000C1FE064C2060FFF7F9FE6060FFF77EFEB2
:102E7000A060FFF73FFEE06010BD00BF70180020AB
:102E8000704710B54FF4AE71044618F018FD204697
:102E900010BD10B50446D0F8580100F012F82046D5
:102EA000BDE8104008F012B910B50446FFF79AF9D2
:102EB000014B2360204610BD10DB01080022026098
:102EC00070477047704704387047704710B510213D
:102ED000044618F0F4FC204610BDA0F10400F5E70C
:102EE00010B500228260044AC16002F10804203259
:102EF0000460426010BD00BF5CDB01087047000049
:102F000010B5034B03600446FFF754FA204610BD8A
:102F100090DB010810B50446FFF7F2FF20464FF49E
:102F20005A7118F0CCFC204610BD000010B50446C4
:102F3000FFF79AFB074B236001220023C4E9D23339
:102F4000C4E9D523C4E9D733C4F85033C4F8643393
:102F5000204610BD90DB0108FFF72DBAF7B5D0F879
:102F60005C530446B5B9B94E8DF80750306803F08C
:102F70001AF878B12A464FF0FF3330680DF1070197
:102F800002F0E2FF9DF80730522B02BF022201231C
:102F9000C4E9D623D4F85423002A00F0F880D4F8EA
:102FA0005C33002B00F0F380D4F85033A74D9B1A0C
:102FB000C4F850339B0708BFD4F85833286804BFBF
:102FC00003F1FF33C4F85833D4F85823B4F9FE3171
:102FD0009B1AC4F84C33A4F8FE31B4F8A431B4F809
:102FE000D021023B1BB2A4F8A431283308BF4FF410
:102FF000A073A2F1020208BFA4F8A431A4F8D02162
:1030000008BFA4F8D031B4F82832B4F85422023BF7
:103010001BB2A4F82832283308BF4FF4A073A2F1E2
:103020000202A4F8542204BFA4F82832A4F85432AF
:1030300000268DF8076002F0B6FF70B14FF0FF3345
:10304000286832460DF1070102F07EFF9DF8073037
:10305000522B04BF0223C4F85833D4F85033312222
:10306000B3FBF2F102FB1133152B00F0BA8000F232
:103070009080072B00F0CD800E2B00F0BD80002B40
:1030800000F0D680B4F9FE31B4F9FC01B4F9007255
:10309000B4F9D0C1B4F9D451B4F90222B3F5907F98
:1030A000A8BF00210744A8BFC4F85413BC45654419
:1030B00010D8A8420ED8B4F9D211B4F9D66131446F
:1030C0008B4204D9B4F9A66199188E4202D8002126
:1030D000C4F85413B4F95412B4F958628F4211D39E
:1030E0008F19B8420ED8B4F95672B4F95AE277443F
:1030F000BB4204D9B4F92A721A44974202D800227A
:10310000C4F85423BCF5917F12D10322B3FBF2F231
:1031100002EB420232279A1A7A43323AC4F8602309
:1031200092B202F1CD07A53AA4F8A671A4F8D22173
:10313000B1F5917F12D10322B3FBF2F202EB42020E
:103140009B1A32225343323BC4F860339BB203F1E3
:10315000CD02A53BA4F82A22A4F85632A84202D0F8
:103160003144884208D1D4F85433012B02BFD4F83B
:1031700064330133C4F86433D4F86433344A05212A
:1031800004F54B700AF0A8FE201D08F093FF03B071
:10319000F0BD232B1ED02A2B0BD01C2B7FF472AF3B
:1031A0000023012284F8913084F8BD3084F8E920AE
:1031B00007E0012384F89130002384F8BD3084F8BF
:1031C000E93084F8153184F8413184F86D3184F8A0
:1031D000993157E70023012284F8913084F8BD200B
:1031E000EDE70023012284F8913084F8BD3084F8A3
:1031F000E93084F81521E6E70023012284F89130B4
:1032000084F8BD3084F8E93084F8153184F8412120
:10321000DBE70023012284F8913084F8BD3084F884
:10322000E93084F8153184F8413184F86D21CEE716
:1032300084F8913084F8BD3084F8E93084F8153191
:1032400084F8413184F86D310123C0E778150020FE
:1032500084DB010810B5D0F86433074A0133044613
:10326000C0F86433052100F54B700AF035FE201DCF
:10327000BDE8104008F01EBF84DB0108F020704755
:103280004FF4A07070472920FEF7F0BA2820FEF70F
:10329000EDBA08B5FEF7BEFACA20FEF7E7FAC3207A
:1032A000FEF7C8FA0820FEF7C5FA5020FEF7C2FA6A
:1032B000CF20FEF7DBFA0020FEF7BCFAC120FEF7B4
:1032C000B9FA3020FEF7B6FAED20FEF7CFFA642007
:1032D000FEF7B0FA0320FEF7ADFA1220FEF7AAFAC5
:1032E0008120FEF7A7FAE820FEF7C0FA8520FEF756
:1032F000A1FA0020FEF79EFA7820FEF79BFACB2079
:10330000FEF7B4FA3920FEF795FA2C20FEF792FA70
:103310000020FEF78FFA3420FEF78CFA0220FEF729
:1033200089FAF720FEF7A2FA2020FEF783FAEA20B6
:10333000FEF79CFA0020FEF77DFA0020FEF77AFAED
:10334000B120FEF793FA0020FEF774FA1B20FEF777
:1033500071FAB620FEF78AFA0A20FEF76BFAA2206D
:10336000FEF768FAC020FEF781FA1020FEF762FA35
:10337000C120FEF77BFA1020FEF75CFAC520FEF7AD
:1033800075FA4520FEF756FA1520FEF753FAC720C6
:10339000FEF76CFA9020FEF74DFA3620FEF766FA3B
:1033A000C820FEF747FAF220FEF760FA0020FEF789
:1033B00041FAB020FEF75AFAC220FEF73BFAB620D7
:1033C000FEF754FA0A20FEF735FAA720FEF732FA84
:1033D0002720FEF72FFA0420FEF72CFA2A20FEF70A
:1033E00045FA0020FEF726FA0020FEF723FA002017
:1033F000FEF720FAEF20FEF71DFA2B20FEF736FA33
:103400000020FEF717FA0020FEF714FA0120FEF75D
:1034100011FA3F20FEF70EFAF620FEF727FA0120F8
:10342000FEF708FA0020FEF705FA0620FEF702FA7A
:103430002C20FEF71BFAC820FEF766FA2620FEF7BE
:1034400015FA0120FEF7F6F9E020FEF70FFA0F203B
:10345000FEF7F0F92920FEF7EDF92420FEF7EAF94E
:103460000C20FEF7E7F90E20FEF7E4F90920FEF73D
:10347000E1F94E20FEF7DEF97820FEF7DBF93C207B
:10348000FEF7D8F90920FEF7D5F91320FEF7D2F997
:103490000520FEF7CFF91720FEF7CCF91120FEF733
:1034A000C9F90020FEF7C6F9E120FEF7DFF9002098
:1034B000FEF7C0F91620FEF7BDF91B20FEF7BAF99A
:1034C0000420FEF7B7F91120FEF7B4F90720FEF744
:1034D000B1F93120FEF7AEF93320FEF7ABF9422007
:1034E000FEF7A8F90520FEF7A5F90C20FEF7A2F9D2
:1034F0000A20FEF79FF92820FEF79CF92F20FEF7FF
:1035000099F90F20FEF796F91120FEF7AFF9C820C0
:10351000FEF7FAF92920FEF7A9F9BDE808402C20AA
:10352000FEF7A4B908B5FEF775F90321D320FEF71D
:10353000B9F980B208BD10B5C4B2022203212046F9
:10354000FEF71EF90A20FEF763F920460022032148
:10355000FEF716F9BDE810400220FEF759B938B55C
:103560000446E4B2FEF70AF900212046FEF720F9EE
:10357000012105462046FEF71BF940EA052080B2EE
:1035800038BD10B5C4B240212046FEF711F903063C
:1035900007D54C212046FEF70BF9003818BF012053
:1035A00010BD01224B212046FEF7EAF820460022FA
:1035B0004B21FEF7E5F80020F2E773B50423C4B20F
:1035C0000E461546D7210DEB03022046FEF70AF9F9
:1035D000019B1BBA1A0DC3F30B23328020462B80AC
:1035E00001224B21FEF7CCF800224B212046FEF7AA
:1035F000C7F802B070BD000010B50A4B1A789042AF
:1036000004460DD0597888420AD00AB141B9012246
:103610009C54FEF7B3F82046BDE81040FFF78BBF7F
:1036200010BD00BF8018002010B5C4B2092120468B
:10363000FEF7BEF840F00100C2B209212046BDE805
:103640001040FEF79DB810B5C4B209212046FEF720
:10365000AFF8092100F0FE022046BDE81040FEF759
:103660008FB838B5C4B20D4620460A21FEF7A0F83F
:103670002843C2B20A212046BDE83840FEF780B890
:1036800007B50190FEF77BF801981F21FFF7E9FFCE
:10369000019803B05DF804EBFFF7C6BF38B5C4B2BC
:1036A0000D4620460A21FEF783F820EA0500C2B243
:1036B0000A212046BDE83840FEF762B810B504463E
:1036C000FFF7C1FF20461F21BDE81040FFF7E6BF0E
:1036D00010B5C0B20C460B21FEF76AF8204010BDB1
:1036E0001F21FFF7F5BF0A46C0B20B21FEF748B80D
:1036F0001F21FFF7F8BF38B5C4B20D462046172189
:10370000FEF756F820EA0500C2B217212046BDE8B0
:103710003840FEF735B870B5C4B2064604212046DD
:10372000FEF746F8042100F0FB0205462046FEF7AE
:1037300027F83046F021FFF7DEFF05F0F8022046BB
:103740000421FEF71DF8492220212046FEF718F833
:103750000220FEF75DF8204601222121FEF710F835
:1037600020469A224121FEF70BF8204601224A21E9
:10377000FEF706F8204601224B21FEF701F820460D
:1037800000224B21FDF7FCFF204601225621FDF7C8
:10379000F7FF204601225821FDF7F2FF20460122C3
:1037A0004021FDF7EDFF2046FF220B21FDF7E8FF4A
:1037B000BDE870400220FEF72BB80000054BD3F89F
:1037C000882042F47002C3F888204FF000629A60AB
:1037D000704700BF00ED00E008B50B4B1A6842F4DB
:1037E00000721A601A6842F480621A601A6842F421
:1037F00080721A60032000F02FF80020FEF7C6FA4E
:10380000FEF790F8002008BD003C0240034A044B3C
:1038100011681B780B441360704700BF84180020A8
:1038200078000020014B1868704700BF8418002002
:1038300038B50446FFF7F6FF631C1CBF054B1B7829
:10384000054618BFE418FFF7EDFF431BA342FAD368
:1038500038BD00BF780000200749CA6822F4E06242
:103860000302120403F4E063120C134343F0BF633A
:1038700043F40033CB60704700ED00E0164B30B5E9
:10388000DC68C4F30224C4F10705231D042D28BFFE
:103890000425062B4FF0FF338CBF033C002403FAB2
:1038A00005F521EA0501A34022EA0302A140002810
:1038B00041EA0203ACBF00F16040084A4FEA03133B
:1038C000B8BF00F00F00DBB2AABF00F5614013548F
:1038D00080F8003330BD00BF00ED00E014ED00E0E3
:1038E000002808DB4209012300F01F0003FA00F062
:1038F000014B43F82200704700E100E010B5044698
:1039000050B1437903F0FF0213B90271FEF72AF8B0
:1039100001236371002010BD0120FCE710B50446AF
:1039200030B390F8393003F0FF021BB980F838202B
:10393000FEF730F822686168022384F83930136892
:1039400023F440330B431360536BA16823F0070348
:103950000B435363136CE16823F47F5323F03F035D
:103960000B43136400200123E06384F8393010BD59
:103970000120FCE770477047036870B55E681D68FA
:10398000F207044614D5E90512D51A6822F48072AC
:103990001A60C26B42F00102C26301229A600423E2
:1039A00080F83930002380F83830436903B19847F4
:1039B000B20616D5AB0414D523681A6822F4005257
:1039C0001A6020229A60E36B43F00203E36304234E
:1039D00084F83930002384F8383063690BB120460D
:1039E0009847300716D5290514D523681A6822F49C
:1039F00000621A6008229A60E36B43F00403E363F9
:103A0000042384F83930002384F8383063690BB11B
:103A10002046984772070BD56B0509D523681A68AD
:103A200022F480621A6004229A602046FFF7A2FF07
:103A3000B00714D5A90512D523681A6822F40072BC
:103A40001A6002229A60E36BE363012384F8393041
:103A5000002384F8383023690BB120469847F206DA
:103A600013D5EB0411D523681A6822F480521A602A
:103A700010229A60E36BE363012384F8393000235A
:103A800084F838302046FFF776FF70BDF0B590F827
:103A90003830012B4FF002032BD0012280F839304F
:103AA00080F8382000EB0113D3E907425D6A184F14
:103AB00044EA0242093C012C9CBF05F07F431A43B3
:103AC0004FEA0116036888BF42EA056299B9596A4C
:103AD00039400A435A62012C82699A6103D8426ACA
:103AE00022F07F429A62012380F83930002380F867
:103AF00038301846F0BDD96939400A43DA61821975
:103B0000012C92691A619CBF25F07F451D62EAE78E
:103B1000F0FFFC002DE9F74FDFF8C0916D4A00235C
:103B20000D6801249C4004EA050CAC4340F0B980C8
:103B30004D6805F003044FEA43080326671E06FAA2
:103B400008F6012F6FEA060634D8876807EA060EE2
:103B5000CF6807FA08F747EA0E078760476827EA41
:103B60000C0EC5F300179F4047EA0E074760C76871
:103B700007EA060E8F6807FA08F747EA0E07022CD5
:103B8000C76019D14FEAD30A00EB8A0A03F0070B8A
:103B9000DAF820704FEA8B0B4FF00F0E0EFA0BFE87
:103BA00027EA0E0E0F6907FA0BF747EA0E07CAF865
:103BB000207001E0032CDAD1076804FA08F43E40D3
:103BC000264315F4403F06606BD04FF0000ACDF855
:103BD00004A0D9F84460404C46F48046C9F84460DB
:103BE000D9F8446006F480460196019E23F003064E
:103BF00006F1804606F59C3603F0030ED6F80880E1
:103C00004FEA8E0E0F2707FA0EF7A04228EA0707A1
:103C10004ED004F58064A0424CD004F58064A042EC
:103C20004AD004F58064A04248D004F58064A042E4
:103C300046D004F58064A04244D004F58064A042DC
:103C400042D004F58064A04240D004F58064A042D4
:103C50003ED004F58064A0420CBF09240A2404FA73
:103C60000EF43C43B46094686FEA0C06EF0254BF54
:103C700034404CEA04049460D468AF0254BF34402A
:103C80004CEA0404D4605468AF0354BF34404CEA97
:103C9000040454601468ED0354BF34404CEA040437
:103CA00014600133102B7FF43BAF03B0BDE8F08FFD
:103CB0005446D4E70124D2E70224D0E70324CEE718
:103CC0000424CCE70524CAE70624C8E70724C6E78E
:103CD0000824C4E7003C01400000024000380240D4
:103CE0000369194214BF0120002070470AB18161A5
:103CF00070470904FBE7436901EA030221EA030173
:103D000041EA02418161704701684B6913F48063A5
:103D10004FF0000210D06FF480634B6120230263E8
:103D200080F83D3080F83E20036C80F83C2043F062
:103D30000403036401207047184670472DE9F846D4
:103D400006460F4691461D464FEA114A3368BAF1BE
:103D5000010F0CBF5C699C6927EA0404A4B2B4FAA1
:103D600084F46409A14501D0002017E06A1CEED05C
:103D7000FFF758FD089BC01AA84201D8002DE5D1D5
:103D800000232022336386F83D2086F83E30326CD3
:103D900086F83C3042F0200232640120BDE8F8860B
:103DA0002DE9F04104460F46164698462568686995
:103DB00027EA000080B2B8B16B695A0516D52B68A6
:103DC00043F400732B606FF480636B612022002347
:103DD000236384F83D2084F83E30226C42F00402D4
:103DE000226484F83C300120BDE8F081731CDED0F1
:103DF000FFF718FDA0EB0800B04201D8002ED5D186
:103E000000232022236384F83D2084F83E30226C76
:103E100042F02002E4E770B504460D4616462168DC
:103E20004B6913F0400301D0002010E04A69D2062C
:103E30000ED56FF010024A612022236384F83D20E2
:103E400084F83E30226C226484F83C30012070BD3E
:103E5000FFF7E8FC801BA84201D8002DDFD100232A
:103E60002022236384F83D2084F83E30226C42F007
:103E70002002E8E770B504460D46164623685B69E4
:103E80005B0701D5002070BD2046FFF73DFFA8B9B4
:103E90006A1CF3D0FFF7C6FC801BA84201D8002D96
:103EA000ECD100232022236384F83D2084F83E30A7
:103EB000226C84F83C3042F0200222640120E2E7C8
:103EC00070B504460D46164623685B691B0601D58E
:103ED000002070BD2046FFF717FFA8B96A1CF3D079
:103EE000FFF7A0FC801BA84201D8002DECD10023D5
:103EF0002022236384F83D2084F83E30226C84F82D
:103F00003C3042F0200222640120E2E72DE9F04338
:103F10001546026885B0DDE90C789946136843F4CC
:103F2000807313600E463B46CDF8008000224FF0B0
:103F300001110446FFF702FF236838B11B68DB0557
:103F400002D54FF40073236403200AE006F0FE0656
:103F50001E61194943463A462046FFF721FF18B132
:103F6000012005B0BDE8F083236803905A690392ED
:103F70009B690393424639462046039BFFF7A0FF07
:103F800040B1236C042B01BF2268136843F4007313
:103F90001360E5E7B9F1010F236802D1EDB21D61AD
:103FA000DFE72A0A1A61394642462046FFF788FFB2
:103FB0000028E6D12368F1E7020001002DE9FF4760
:103FC0009A46036815461A6842F480621A601A68B5
:103FD000DDE90C7842F480721A600E463B46CDF85B
:103FE000008000224FF001110446FFF7A7FE23686E
:103FF00048B11B68DB0502D54FF40073236403202E
:1040000004B0BDE8F0875FFA86F906F0FE061E618F
:104010002A4943463A462046FFF7C2FE08B101202E
:10402000EEE7236803905A6903929B690393424623
:1040300039462046039BFFF743FF40B1236C042B16
:1040400001BF2268136843F400731360E7E7BAF115
:10405000010F23681AD1EDB21D6142463946204650
:10406000FFF72EFF0028E9D12268136843F480731C
:1040700013604FF001110246CDF800803B46204608
:10408000FFF75CFE226860B11368B3E72A0A1A6181
:10409000394642462046FFF713FF0028CED1236859
:1040A000D9E749F001031361044943463A462046E3
:1040B000FFF776FE003818BF0120A1E702000100DB
:1040C00070B5044608B9012070BD90F83D3003F08A
:1040D000FF021BB980F83C20FDF77EFC242384F806
:1040E0003D3023681A6822F001021A601A6842F40F
:1040F00000421A601A6822F400421A6000F074FE4E
:104100003F4B65689D4294BF3E4B3F4B98428CBFEE
:1041100000230123002BD6D12268394E53683B4936
:10412000B0FBF1F123F03F030B43B542536088BF6E
:104130004FF49676136A88BF714323F03F0384BF20
:104140004FF47A76B1FBF6F1013119431162D1696E
:10415000431E2B4821F44F41854221F0FF0132D804
:104160006D0040F6FC70B3FBF5F30133034242D01F
:10417000C3F30B030B43D361D4E907301168034346
:1041800021F0C0010B4313609168D4E9030321F4CB
:104190000341034321F0FF010B439360D4E9053051
:1041A000D168034321F0FF010B43D360136843F050
:1041B0000103136000202023206484F83D30206335
:1041C00084F83E0080E7A06850B905EB4505B3FBD5
:1041D000F5F30133C3F30B037BB143F40043C9E7A9
:1041E00019204543B3FBF5F30133C3F30B0323B1AC
:1041F00043F44043BEE70423BCE70123BAE700BF12
:10420000A08601007F841E00FF083D0040420F0091
:104210002DE9F743044699460C9E0F469046FFF75A
:1042200001FB94F83D30202B054603D0022003B05B
:10423000BDE8F08300903C49192301222046FFF796
:104240007DFD0028F2D194F83C30012BEED020689F
:10425000012384F83C300368D9075EBF036843F04C
:1042600001030360036823F400630360212384F8DF
:104270003D30402384F83E30002323640A9B636270
:10428000BDF82C306385638D2385284BE362CDE92F
:1042900000654B46424639462046FFF737FE002868
:1042A0002AD00120C3E7FFF70BFE40B1236C042B9B
:1042B00001BF2268136843F400731360F1E7636A77
:1042C00027681A4612F8011B39616262628D218DDE
:1042D000013A92B262857A69481E80B252072085FF
:1042E0000AD548B15A783A6102336362638D013B63
:1042F00002399BB221856385238D2A4631462046AB
:10430000002BD0D1FFF7B6FD0028CFD1226813686B
:1043100043F400731360202384F83D3084F83C009C
:1043200084F83E0083E700BF020010000000FFFF9A
:104330002DE9F043044687B09946109F0D469046FC
:10434000FFF770FA94F83D30202B064604D0022582
:10435000284607B0BDE8F083009076491923012272
:104360002046FFF7EBFC0028F1D194F83C30012BFC
:10437000EDD02068012384F83C300368DB075EBF82
:10438000036843F001030360036823F400630360E0
:10439000222384F83D30402384F83E3000232364F8
:1043A0000E9B6362BDF83C306385638D2385624B51
:1043B000E3622946CDE900764B4642462046FFF7A8
:1043C000FDFD054608B10125C2E7228D2368B2B97B
:1043D00002905A6902929A690292029A1A6842F409
:1043E00000721A60DFF85481238D002B2CD120221B
:1043F00084F83D2084F83C3084F83E30A8E7012A58
:104400000AD11A6822F480621A6003905A690392F2
:104410009A690392039AE1E7022A0ED11A6822F4FC
:1044200080621A601A6842F400621A6004905A6945
:1044300004929B690493049BD4E705905A69059202
:104440009B690593059BCDE7032B56D8012B15D10E
:10445000324639462046FFF7DEFC0028B3D12368F8
:104460001A69636A1A70636A01336362238D013BC0
:104470002385638D013B9BB26385B5E7022B0096D4
:104480003B464FF000024146204619D1FFF756FC4B
:10449000002898D123681A6842F400721A601A69D9
:1044A000636A1A70626A531C6362238D013B238521
:1044B000638D013B9BB2638523681B695370D2E710
:1044C000FFF73CFC00287FF47EAF23681A6822F4D3
:1044D00080621A601A69636A1A70636A009601330F
:1044E0006362238D013B2385638D013B9BB2638512
:1044F00002463B4641462046C8E7324639462046FA
:10450000FFF789FC00287FF45EAF23681A69636AAD
:104510001A70626A531C6362238D013B2385638D8D
:10452000013B9BB263852368596949077FF55CAFFE
:10453000C3E700BF020010000000FFFF04000100FD
:1045400010B590F83D30202BDCB216D1242380F832
:104550003D3003681A6822F001021A605A6A22F09C
:1045600010025A625A6A114359621A6842F00102F3
:104570001A6080F83D40002010BD0220FCE730B5F5
:1045800090F83D30202BDCB216D10268242380F84D
:104590003D30136823F001031360556A4FF6F07342
:1045A0002B400B439BB25362136843F0010313602B
:1045B00080F83D40002030BD0220FCE70068D1F8C3
:1045C00000C0D201843283182DE9F043C6685D68CB
:1045D0004C68D1F8189005F470455D60C5680CF121
:1045E0000107C5F30B45C6F30B463D44264445EA97
:1045F00006455D60C568CE68C5F30A052E449D6812
:1046000005F470459D60C7688D68C7F30A070135DA
:104610003D4445EA06459D601D690E6925F0070584
:104620001D614FF0000E1E619D6991F8327091F886
:104630003180C3F818E091F8305045EA096545EA41
:10464000082545EA07459D615D6925F0FF055D6127
:104650004D695D61DD6925F4E06525F00705DD61E3
:10466000D1E907573D43DD619D6A4D6AC3F828E0F3
:104670009D621EB3012E23D0B51E022D22D9072E16
:104680000CBF02250125DE6A06F0E026DE62A4EBFF
:104690000C048E6AC96A6C436E43033444EA0644D0
:1046A000DC621C6B24F4FF6424F007041C631963B0
:1046B000835843F001038350BDE8F0830425E2E70B
:1046C0000325E0E70225DEE738B50446002863D07D
:1046D00090F8A13003F0FF021BB980F8A020FDF78D
:1046E000D7F9022384F8A13023689A6922F0704236
:1046F0009A61D4E901200243E06899690243206984
:1047000002430A439A619A68244960690A409A60A0
:104710009A6842EA0042A06902439A60DA68E06956
:104720000A40DA60DA6842EA0042206A0243DA604C
:104730001A69606A0A401A611A6942EA0042A06A6C
:1047400002431A615A69114059615A69E16A42EAA1
:104750000142216B0A435A61D96A94F8360094F8F1
:10476000355001F07F41D962D96A94F834200A4368
:1047700042EA052242EA0042DA625A6B42F006023D
:104780005A639A6942F001029A6100200123C4F839
:10479000A40084F8A13038BD0120FCE700F800F047
:1047A00070477047036870B59E6B5D6B7207044677
:1047B00014D5690712D55A6B22F004025A630422F9
:1047C000DA63D0F8A43043F00103C0F8A43000232A
:1047D00080F8A12080F8A030FFF7E2FFB20716D5DD
:1047E000AB0714D523685A6B22F002025A630222E7
:1047F000DA63D4F8A4301343C4F8A430042384F853
:10480000A130002384F8A0302046FFF7C9FFF0074D
:1048100010D5E9070ED523685A6B22F001025A63BE
:104820000122DA63002384F8A12084F8A030204616
:10483000FCF720FD320711D52B070FD523685A6BE3
:1048400022F008025A630822DA63012384F8A130B7
:10485000002384F8A0302046FFF7A3FF70BD2DE9A8
:10486000F04190F8A030012B06460F4694464FF0D9
:1048700002001FD04FF0010886F8A08086F8A10042
:1048800034240D4604FB02640FCD38340FC40FCD21
:104890000FC40FCD0FC42B682360304662463946E3
:1048A000FFF78CFE33680020C3F8248086F8A180CF
:1048B00086F8A000BDE8F08190F8A030012B4FF001
:1048C000020312D080F8A13003685A6B22F0010273
:1048D0005A63074A11645A6B42F001025A6301237A
:1048E00080F8A130002380F8A0301846704700BF40
:1048F000006801402DE9F341044640B30368DD0739
:1049000010D4236898075ED423681A0700F1A080AA
:1049100023685B0700F1C080A069002840F028816F
:1049200000202BE08F4B9A6802F00C02042A07D07B
:104930009A6802F00C02082A0BD15A68510208D575
:10494000884B1B689A03DCD56368002BD9D1012002
:1049500014E06268B2F5803F13D11A6842F48032E5
:104960001A60FEF75FFF7F4E054633689B03C8D48D
:10497000FEF758FF401B6428F7D9032002B0BDE8BA
:10498000F081784DB2F5A02F2B6807D143F4802336
:104990002B602B6843F480332B60E2E723F48033F1
:1049A0002B602B6823F480232B60002AD9D1FEF7DB
:1049B00039FF06462B689F03A3D5FEF733FF801B04
:1049C0006428F7D9D9E7674B9A6812F00C0F07D023
:1049D0009A6802F00C02082A11D15B685E020ED4BC
:1049E000604A13689D0702D5E368012BAFD11368B5
:1049F000216923F0F80343EAC103136084E7E26806
:104A0000594BB2B101221A60FEF70CFF554D064614
:104A10002B68980707D52B68226923F0F80343EA2F
:104A2000C2032B6070E7FEF7FDFE801B0228EFD962
:104A3000A3E71A60FEF7F6FE4A4E0546336899076B
:104A40007FF562AFFEF7EEFE401B0228F6D994E731
:104A50006269454B82B10122C3F8802EFEF7E2FE67
:104A6000404E0546736F9F073FF552AFFEF7DAFEE3
:104A7000401B0228F6D980E7C3F8802EFEF7D2FE4D
:104A8000384E0546736F98077FF542AFFEF7CAFEB2
:104A9000401B0228F6D970E7324B1A6C12F0805294
:104AA00028D101921A6C42F080521A641B6C03F0F8
:104AB00080530193019B01272C4D2B68D9051BD5F1
:104AC000A368284D012B27D12B6F43F001032B67DF
:104AD000FEF7A8FE234E054641F28838336F9B0748
:104AE00039D5002F3FF418AF1E4A136C23F08053C2
:104AF000136411E70027DFE72B6843F480732B6012
:104B0000FEF790FE06462B68DA05D9D4FEF78AFE3A
:104B1000801B0228F7D930E7052B04D12B6F43F017
:104B200004032B67D0E72A6F22F001022A672A6F5D
:104B300022F004022A67002BCAD1FEF773FE41F26D
:104B4000883806462B6F9807CBD5FEF76BFE801B87
:104B50004045F7D911E7FEF765FE401B4045BDD93A
:104B60000BE700BF003802400000474200700040E1
:104B7000364DAB6803F00C03082B3DD0344B0022BC
:104B800002281A662BD1FEF74DFE06462B689901C6
:104B90001FD4D4E907321343626A43EA8213E26AFC
:104BA00043EA0263A26A5208013A43EA02436B6095
:104BB000274B264D01221A66FEF734FE04462B6869
:104BC0009A013FF5ADAEFEF72DFE001B0228F6D987
:104BD000D3E6FEF727FE801B0228D7D9CDE6FEF7E5
:104BE00021FE04462B689B017FF59AAEFEF71AFE64
:104BF000001B0228F6D9C0E601283FF4BFAE6B685F
:104C0000E26903F4800191427FF4A1AE216A03F0CE
:104C10003F028A427FF49BAE616A47F6C0721A4037
:104C2000B2EB811F7FF493AEA26A520803F44031C5
:104C3000013AB1EB024F7FF48AAEE26A03F070638F
:104C4000B3EB026F3FF46CAE81E600BF0038024068
:104C500000004742134908B58B6803F00C03042B8E
:104C60001CD0082B1CD14A684B68496813F4800398
:104C700014BF0D480D48C1F3881118BF002302F07E
:104C80003F02A1FB0001FBF703FB064B5B68C3F38C
:104C9000014301335B00B0FBF3F008BD0248FCE7C1
:104CA0000248FAE70038024000127A000024F400BB
:104CB0002DE9F0410D46044610B90120BDE8F08110
:104CC000444B1A6802F00F028A4228D322689707E1
:104CD0002DD4D00741D43F4B1A6802F00F02AA42EC
:104CE00066D8226851076CD4130707D53A4A216960
:104CF000936823F4604343EAC1039360FFF7AAFF7C
:104D0000354B364A9B68C3F30313D35CD840344B0E
:104D10001860344B1868FDF739F80020CEE7CAB2A6
:104D20001A701B6803F00F038B42C6D1CEE72A4BE3
:104D300012F0040F1EBF996841F4E0519960160704
:104D400042BF996841F4604199602349A0688B682B
:104D500023F0F00303438B60BBE762681E4B012A1C
:104D60001CD11B6813F4003FA7D01B4EB36823F07F
:104D700003031343B360FEF755FD41F2883807463D
:104D8000B368626803F00C03B3EB820FA3D0FEF7A5
:104D900049FDC01B4045F3D903208FE7911E01292F
:104DA0001B6802D813F0007FDEE713F0020FDBE789
:104DB000EAB21A701B6803F00F03AB427FF47DAFB9
:104DC0008FE70549E0688B6823F4E05303438B6069
:104DD0008AE700BF003C024000380240C0DB010807
:104DE000740000207C000020044B054A9B68C3F33C
:104DF0008223D35C034A1068D840704700380240D1
:104E0000D0DB0108740000200F2303600B4B9A686D
:104E100002F0030242609A6802F0F00282609A682F
:104E200002F4E052C2609B68DB0803F4E0530361C4
:104E3000034B1B6803F00F030B6070470038024000
:104E4000003C0240036813F0430FF7B5044640F0FE
:104E50008C80236813F00C0F45D08B4B8B4D0022B8
:104E60001A67FEF7DFFC06462B689F0000F1CF8033
:104E700021684E0715D5D4E90403D5F888201B0610
:104E800002F0E04243EA80131343C5F88830D5F8B6
:104E90008C30226A23F4F853013A43EA0223C5F81E
:104EA0008C300D0714D5794AA369D2F8881020698F
:104EB0001B0701F0706143EA80130B43C2F888308E
:104EC000D2F88C30616A23F440330B43C2F88C3043
:104ED0006D4B6E4E01221A67FEF7A4FC054633683F
:104EE000980040F19B8023689B0633D500230193F3
:104EF000664B674D1A6C42F080521A641B6C03F0CB
:104F000080530193019B2B6843F480732B60FEF761
:104F100089FC06462B68D90540F187805B4D2B6FD5
:104F200013F4407340F08880A36A03F44072B2F532
:104F3000407F564A40F0A480916823F0704021F4ED
:104F4000F81120F4407001439160116FC3F30B031B
:104F50000B431367206810F010001FBF4D4B94F8EF
:104F60002C20C3F8E02100204FE0474B474E0022A1
:104F70009A66FEF757FC054633681F013FD4216847
:104F8000CD0741BFD4E901231B0743EA8213C6F8CA
:104F90008430880715D53D4AE368D2F884006568F7
:104FA0001B0600F0E04043EA85130343C2F8843057
:104FB000D2F88C00E36920F01F00013B0343C2F8E4
:104FC0008C3049060AD5E36862681B0643EA8213FF
:104FD000A26843EA02732D4AC2F884302A4B2B4E52
:104FE00001229A66FEF71EFC054633681A013FF55A
:104FF00030AFFEF717FC401B0228F6D904E0FEF79D
:1050000011FC401B0228B7D9032003B0F0BDFEF706
:1050100009FC801B02287FF627AFF5E7FEF702FCAC
:10502000401B02287FF65BAFEEE7FEF7FBFB801B21
:1050300002287FF66FAFE7E7A26A02F4407293425C
:105040003FF472AF2B6F104A0121C2F8401E23F4C7
:1050500040730021C2F8401E2B672B6FDA077FF5E3
:1050600063AFFEF7DFFB41F2883706462B6F9B07E5
:105070003FF55AAFFEF7D6FB801BB842F6D9C3E71F
:10508000916821F4F8115FE70000474200380240C0
:10509000007000400010474238B50D460446C8B1C4
:1050A00090F82C3003F0FF021BB980F82D20FCF79C
:1050B00001FE022384F82C30211D206800F004FD3D
:1050C00062682068294600F03AFD012384F82C30FC
:1050D000002038BD0120FCE770B590F82C30022B81
:1050E00005460E46D8B212D000F0FB04012C0FD1B9
:1050F000022385F82C30286800F057FD3368022B16
:1051000006BF052385F82C3085F82C40002070BDA3
:105110000120FCE738B590F82C30022B0446D8B2B9
:105120000DD094F82C30012BDDB209D10223206878
:1051300084F82C3000F05FFD84F82C50002038BD3E
:105140000120FCE72DE9F3411D4617468846064637
:10515000FEF768FB3D442C1AFEF764FB224B1B68EC
:10516000C3F3CB330546634332680193936838EA4F
:10517000030301D000202DE07B1CF7D0FEF752FB8B
:10518000401BA04229D333685A6822F0E0025A60DB
:105190007268B2F5827F0AD1B268B2F5004F02D0D0
:1051A000B2F5806F03D11A6822F040021A60B26A29
:1051B000B2F5005F07D11A6822F400521A601A682B
:1051C00042F400521A60012386F85130002386F819
:1051D0005030032002B0BDE8F081019B002B019B01
:1051E00008BF0024013BBFE77400002038B5134618
:1051F0004268B2F5827F04461FD18268B2F5004F43
:1052000002D0B2F5806F07D125682868B2F5806FAB
:1052100020F04000286007D00A4680212046FFF792
:1052200091FF20B9002038BD0A460121F6E7636DE1
:1052300043F0200363650320F5E70A460121EEE70A
:1052400037B51346124A1568124AB5FBF2F54FF40A
:105250007A72554342680195B2F5827F04460BD1BC
:105260000A468021FFF76EFF78B1636D43F020039B
:105270006365032003B030BD019B33B1019B013B4B
:10528000019323689B681B06F6D40020F2E700BF59
:105290007400002000366E0110B50446002855D079
:1052A000436A002B4ED14268B2F5827F00D0C361C1
:1052B0000023A36294F8513003F0FF0223B984F86D
:1052C00050202046FCF7C0FC2168A068A269022398
:1052D00084F851300B6823F040030B60636800F4DE
:1052E000044003F482730343E06800F40060034366
:1052F000206900F002000343606900F001000343ED
:1053000002F400700343E06900F038000343206AB0
:1053100000F080000343A06A00F4005003430B60D8
:10532000636A120C03F0100302F004021A434A608D
:10533000CB6923F40063CB6100200123606584F80E
:10534000513010BD0023C0E90433B1E70120F8E774
:105350002DE9F3411E4690F85030012B04460D46CE
:10536000174600F0A180012380F85030FEF75AFA6A
:1053700094F85130012B8046D8B240F09380002D34
:105380005ED0002F5CD0A2682563032384F85130DF
:10539000B2F5004F4FF000036365C4E91033E786B0
:1053A000A363A387E387A786236807D11A6822F03F
:1053B00040021A601A6842F480421A601A68E16872
:1053C00052065EBF1A6842F040021A60B1F5006FE3
:1053D000626841D10AB1012F07D135F8022BDA609A
:1053E0002563E38E013B9BB2E386E38E9BB2A3B9B8
:1053F000424631462046FFF723FF00284FD1A368DD
:1054000033B901932368DA6801929B680193019B89
:10541000606D003818BF012012E022689368980779
:1054200005D5236B33F8021BD1602363D9E7FEF760
:10543000F9F9A0EB0800B0420BD3711CD5D00320C2
:10544000012384F85130002384F8503002B0BDE8C5
:10545000F081002EC9D1F2E70AB1012F08D12A78D4
:105460001A73236B01332363E38E013B9BB2E38604
:10547000E38E9BB2002BBBD023689A68920702D5BB
:10548000226B1278ECE7FEF7CDF9A0EB0800B042F2
:1054900002D3731CECD0D2E7002EE9D1CFE7202352
:1054A0006365ACE70220CBE70220CFE72DE9F743A5
:1054B0001E4690F850300A9F012B04460D46914637
:1054C00000F0E680012380F85030FEF7ABF994F845
:1054D00051306268012B8046D9B20AD0B2F5827F82
:1054E00040F0D480A368002B40F0D080042940F025
:1054F000CD80002D40D0B9F1000F3DD0002E3BD023
:1055000094F85130C4F83890042B1CBF052384F85C
:10551000513000236365C4E910332368E687E686CB
:105520001968A687490658BF1968256358BF41F016
:105530004001A68658BF1960E168B1F5006F52D1ED
:105540000AB1012E07D135F8022BDA60E38E25630C
:10555000013B9BB2E3860125E38E9BB273B9E38FD7
:105560009BB25BB9424639462046FFF769FE0028E8
:1055700000F081802023636501202BE021688B6887
:105580009E070DD5E38E9BB253B14DB1236B33F81B
:10559000022BCA602363E38E013B9BB2E3860025A6
:1055A0008A6812F001020CD0E38F9BB24BB1A36B5F
:1055B000C96823F8021BA363E38F013B9BB2E38717
:1055C0001546FEF72FF9A0EB0800B842C4D3781CAB
:1055D000C2D00320012384F85130002384F85030D6
:1055E00003B0BDE8F0830AB1012E08D12A781A73FE
:1055F000236B01332363E38E013B9BB2E3860125DA
:105600002DE02268936899070ED5E38E9BB25BB1BB
:1056100055B1236B1B781373236B01332363E38E24
:10562000013B9BB2E38600252268916811F00101DD
:105630000DD0E38F9BB253B1A36BD2681A70A36BEA
:105640000133A363E38F013B9BB2E3870D46FEF773
:10565000E9F8A0EB0800B8420AD37B1CB9D1E38E6D
:105660009BB2002BCDD1E38F9BB2002BC9D179E740
:10567000002FF4D1ADE7A368002BABD123680190D4
:10568000DA6801929B680193019BA3E70220A1E7DE
:105690000220A5E72DE9F7431D464368B3F5827F55
:1056A0000446894617460CD1836853B9042380F811
:1056B0005130134600950A46FFF7F8FE03B0BDE8E7
:1056C000F08394F85030012B00F08680012384F899
:1056D0005030FEF7A7F894F85130012B8046D8B22D
:1056E00078D1B9F1000F5CD0002F5AD0A268C4F86D
:1056F000389000260423B2F5004F84F85130C4E9F5
:10570000106666652368E787A7872663A686E68610
:1057100007D11A6822F040021A601A6822F4804207
:105720001A601A6856065EBF1A6842F040021A6094
:10573000E368F3B1E38F9BB2FBB123689A68D207A9
:1057400039D5DA68A36B23F8022BA363E38F013BFF
:105750009BB2E387EEE723689A68D00718D5A26B5F
:105760001B7B1370A36B0133A363E38F013B9BB2DD
:10577000E387E38F9BB2002BEDD1424629462046BA
:10578000FFF734FD18BB606D003818BF012008E03A
:10579000FEF748F8A0EB0800A84209D3691CE8D03E
:1057A0000320012384F85130002384F8503085E72A
:1057B000002DDED1F4E7FEF735F8A0EB0800A84293
:1057C00002D36B1CB6D0EBE7002DB3D1E8E7202362
:1057D0006365D8E70220E4E702206FE77047000026
:1057E00090F83D30012B30D1022380F83D30036822
:1057F000DA6842F00102DA60154A93421AD0B3F136
:10580000804F17D0A2F57C42934213D002F58062FC
:1058100093420FD002F5806293420BD002F578429A
:10582000934207D002F57052934203D0A2F594320E
:10583000934204D19A6802F00702062A03D01A683C
:1058400042F001021A60002070470120704700BF3B
:1058500000000140704770477047704703681A693D
:10586000910710B504460ED5DA6892070BD56FF094
:1058700002021A61012202779B699B0777D0FFF72A
:10588000EAFF0023237723681A69500710D5DA68E6
:1058900051070DD56FF004021A61022222779B692D
:1058A00013F4407F204668D0FFF7D5FF002323770D
:1058B00023681A6912070FD5DA6810070CD56FF044
:1058C00008021A6104222277DB69990720465AD020
:1058D000FFF7C1FF0023237723681A69D20610D58A
:1058E000DA68D0060DD56FF010021A61082222770F
:1058F000DB6913F4407F20464BD0FFF7ACFF002359
:10590000237723681A69D10708D5DA68D20705D545
:105910006FF001021A612046FBF7F8FF23681A694D
:10592000100608D5DA68110605D56FF080021A61F5
:10593000204600F0C8F823681A69520608D5DA68CC
:10594000500605D56FF040021A612046FFF785FF2B
:1059500023681A69910622D5DA6892061FD56FF07E
:10596000200220461A61BDE8104000F0ABB8FFF7F6
:1059700071FF2046FFF770FF83E7FFF76BFF2046BC
:10598000FFF76AFF92E7FFF765FF2046FFF764FF26
:10599000A0E7FFF75FFF2046FFF75EFFAFE710BD10
:1059A000304A0368904212D0B0F1804F0FD0A2F578
:1059B0007C4290420BD002F58062904207D002F503
:1059C0008062904203D002F57842904219D14A6831
:1059D00023F070031343234A904229D0B0F1804F43
:1059E00026D0A2F57C42904222D002F580629042FD
:1059F0001ED002F5806290421AD002F578429042A1
:105A000016D0194A904213D002F5806290420FD00E
:105A100002F5806290420BD0A2F59832904207D0F6
:105A200002F58062904203D002F58062904203D179
:105A3000CA6823F4407313434A6923F08003134375
:105A400003608B68C3620B688362064B984203D085
:105A500003F58063984201D10B690363012343611D
:105A6000704700BF000001400040014010B50446EF
:105A700030B390F83D3003F0FF021BB980F83C20B2
:105A8000FFF7ACFE0223206884F83D30211DFFF7AC
:105A900087FF012384F84630002084F83E3084F8E4
:105AA0003F3084F8403084F8413084F8423084F844
:105AB000433084F8443084F8453084F83D3010BDDC
:105AC0000120FCE7704770472DE9F043D1E9074317
:105AD0000A68D1F82490D1E90158D1E903ECD1E961
